:020000040800F2
:100000006007002089010008C9190008C517000809
:10001000C51900088F020008E32100080000000055
:100020000000000000000000000000007520000833
:10003000D102000800000000251D000877200008FC
:10004000A3010008A3010008A3010008A301000800
:10005000A3010008A3010008A3010008A3010008F0
:10006000A3010008A3010008A3010008A3010008E0
:10007000A3010008A301000895020008A3010008DD
:10008000A3010008A3010008A3010008A3010008C0
:10009000A3010008A3010008A3010008A3010008B0
:1000A000A3010008A3010008A3010008A3010008A0
:1000B000A3010008A3010008A3010008A301000890
:1000C000A3010008A3010008A3010008A301000880
:1000D000A3010008A3010008A3010008A301000870
:1000E000A3010008A3010008A301000800F002F822
:1000F00000F03AF80AA090E8000C82448344AAF188
:100100000107DA4501D100F02FF8AFF2090EBAE885
:100110000F0013F0010F18BFFB1A43F0010318473B
:100120009C210000BC210000103A24BF78C878C18F
:10013000FAD8520724BF30C830C144BF04680C60ED
:10014000704700000023002400250026103A28BF35
:1001500078C1FBD8520728BF30C148BF0B60704739
:100160001FB51FBD10B510BD00F058F81146FFF7C0
:10017000F7FF02F061F800F076F803B4FFF7F2FF42
:1001800003BC00F07DF8000009488047094800479B
:10019000FEE7FEE7FEE7FEE7FEE7FEE7FEE7FEE737
:1001A000FEE7FEE704480549054A064B7047000094
:1001B000E5200008ED000008600100206007002035
:1001C00060030020600300204FF0000200B51346DA
:1001D00094469646203922BFA0E80C50A0E80C5067
:1001E000B1F12001BFF4F7AF090728BFA0E80C5018
:1001F00048BF0CC05DF804EB890028BF40F8042B11
:1002000008BF704748BF20F8022B11F0804F18BF7D
:1002100000F8012B7047704770477047754600F033
:100220002BF8AE4605006946534620F00700854688
:1002300018B020B5FFF7B6FFBDE820404FF000062C
:100240004FF000074FF000084FF0000B21F00701BE
:10025000AC46ACE8C009ACE8C009ACE8C009ACE801
:10026000C0098D46704710B50446AFF300802046A4
:10027000BDE81040FFF781BF004870470001002033
:1002800001491820ABBEFEE726000200704700BF00
:10029000FEE7000010B5024800F02CF810BD000089
:1002A0007400002030B590F840500124AC40C56B7C
:1002B0006C60046863604468102C04D10468A26018
:1002C0000468E16003E00468A1600468E26030BD96
:1002D000704701B500204FF08041486200BF4FF0E9
:1002E0008040406A00998842F9D308BD72B600BFC9
:1002F000FEE7000070B50446E06B056820680668FC
:1003000094F84010042088402840002846D006F089
:100310000400002842D02068006800F0200028B9BE
:100320002068006820F004002168086057492068B0
:10033000884201D1042027E05449143120688842C2
:1003400001D1402020E0514928312068884201D164
:10035000001519E04D493C312068884202D14FF424
:10036000804011E0494950312068884202D14FF461
:10037000802009E0454964312068884202D14FF469
:10038000800001E04FF08060404908394860E06A31
:1003900000287AD02046E16A884776E094F8401039
:1003A000022088402840A0B306F0020088B32068ED
:1003B000006800F0200040B92068006820F00A00C2
:1003C00021680860012084F82100304920688842B3
:1003D00001D1022028E02D4914312068884201D142
:1003E000202021E0294928312068884201D1401588
:1003F0001AE026493C312068884202D14FF400506F
:1004000012E0224950312068884203D14FF4003075
:100410000AE017E01D4964312068884202D14FF498
:10042000001001E04FF0007018490839486000BF23
:10043000002084F8200000BFA06A30B32046A16AE3
:10044000884722E094F84010082088402840E0B116
:1004500006F00800C8B12068006820F00E0021688E
:10046000086094F8401001208840E16B486001204A
:10047000A06384F8210000BF002084F8200000BFA2
:10048000206B10B12046216B884770BD08000240E8
:100490000146002209B901207047164B0868C01AAE
:1004A0001423B0FBF3F08000086412480838C863D6
:1004B000022081F821000868026843F6F070824348
:1004C000D1E901031843CB6818430B6918434B6902
:1004D00018438B691843CB691843024308680260CC
:1004E00000208863012081F82100002081F820008D
:1004F00000BFD1E7080002402DE9F04104460D4657
:1005000016461F464FF0000800BF94F8200001284F
:1005100002D10220BDE8F081012084F8200000BF54
:1005200094F8210001282CD1022084F82100002019
:10053000A0632068006820F00100216808603B4645
:10054000324629462046FFF7ADFEE06A30B120680A
:10055000006840F00E00216808600BE02068006829
:1005600020F00400216808602068006840F00A005C
:10057000216808602068006840F001002168086078
:1005800006E000BF002084F8200000BF4FF0020802
:100590004046BFE770B5044600F0AEF90646254672
:1005A000681C10B104480078054400BF00F0A4F9AD
:1005B000801BA842FAD370BD140000202DE9F84733
:1005C0000346002294466EE14FF0010808FA02F457
:1005D000D1F8008008EA0400A0427DD1DFF8DCA257
:1005E000D1F80480A8EB0A09D0453AD014DCB8F160
:1005F000030F50D009DCB8F1000F31D0B8F1010F72
:100600001CD0B8F1020F49D120E0B8F1110F18D079
:10061000B8F1120F42D11EE0B9F5881F25D006DCD3
:10062000B9F5803F20D0B9F5801F37D11AE0B9F570
:10063000001F18D0B9F5041F30D117E0D1F80CC055
:100640002DE0D1F80C8008F1040C28E0D1F80C80E2
:1006500008F1080C23E0D1F80C8008F10C0C1EE026
:1006600000BF00BF00BF00BF00BF00BFD1F80880BF
:10067000B8F1000F02D14FF0040C0BE0D1F8088064
:10068000B8F1010F03D14FF0080C1C6102E04FF0EC
:10069000080C5C6103E04FF0000C00E000BF00BFFD
:1006A000FF2801D8984601E003F104084646FF28D8
:1006B00002D84FEA820803E0A2F108084FEA88084E
:1006C0004746D6F800804FF00F0909FA07F928EAE3
:1006D00009080CFA07F900E088E048EA0908C6F8BA
:1006E0000080D1F8048008F08058B8F1805F7DD197
:1006F00000BFDFF8CC81D8F8188048F00108DFF897
:10070000C091C9F81880C846D8F8188008F00108C8
:10071000CDF8008000BF00BF4FEAB9384FEA920918
:1007200058F829504FEA82784FEA18794FF00F08AD
:1007300008FA09F825EA0805DFF88881434502D15F
:100740004FF0000816E0DFF88081434502D14FF0FA
:1007500001080FE0DFF87481434502D14FF0020831
:1007600008E0DFF86C81434502D14FF0030801E057
:100770004FF004084FEA82794FEA197908FA09F82C
:1007800048EA0505DFF84C814FEA920948F82950FC
:10079000D1F8048008F48018B8F5801F0AD1DFF87A
:1007A0003881D8F8008048EA0008DFF82C91C9F8B1
:1007B000008009E0DFF82081D8F8008028EA0008EE
:1007C000DFF81491C9F80080D1F8048008F400180B
:1007D000B8F5001F10D1DFF8008108F10408D8F83F
:1007E000008048EA0008DFF8F09000E05AE009F1E4
:1007F0000409C9F800800DE0DFF8DC8008F1040886
:10080000D8F8008028EA0008DFF8CC9009F1040944
:10081000C9F80080D1F8048008F40038B8F5003F2A
:100820000ED1DFF8B480A8F10408D8F8008048EAB7
:100830000008DFF8A490A9F10409C9F800800DE0D0
:10084000DFF89480A8F10408D8F8008028EA0008AE
:10085000DFF88490A9F10409C9F80080D1F8048078
:1008600008F48038B8F5803F0ED1DFF86C80A8F12D
:100870000808D8F8008048EA0008DFF85C90A9F181
:100880000809C9F800800DE0DFF84C80A8F10808DD
:10089000D8F8008028EA0008DFF83C90A9F10809A0
:1008A000C9F80080521CD1F8008028FA02F8B8F18B
:1008B000000F7FF489AEBDE8F8870000000011103A
:1008C0000010024000080140000C014000100140EF
:1008D00000140140080001400804014002469368EA
:1008E0000B400BB1012000E0002070470AB101610C
:1008F00001E00B0403617047014800687047000085
:100900000C000020034800680349097808440149A5
:10091000086070470C0000201400002010B5084843
:10092000006840F0100006490860032000F0A8F8B5
:100930000F2000F007F800F02BF8002010BD000099
:100940000020024070B504460E4800784FF47A71DA
:10095000B1FBF0F00C490968B1FBF0F5284600F056
:10096000CFFD08B1012070BD102C07D20022214616
:10097000501E00F047F80548046001E00120F2E74E
:100980000020F0E7140000201800002010000020D4
:1009900008B500BF1148806940F001000F49886127
:1009A0000846806900F00100009000BF00BF00BF52
:1009B0000846C06940F08050C8610846C06900F030
:1009C0008050009000BF00BF00BF0549486820F07C
:1009D000E06040F00070486000BF08BD00100240B9
:1009E0000000014001460846002809DB00F01F0313
:1009F00001229A4043099B0003F1E023C3F8002140
:100A000000BF70472DE9F05F80460D46164600276F
:100A100001F0EAFB074639462A46334601F0070053
:100A2000C0F1070ABAF1040F02D94FF0040A01E03D
:100A3000C0F1070AD14600F1040ABAF1070F02D249
:100A40004FF0000A01E0A0F1030AD4464FF0010A7A
:100A50000AFA09FAAAF1010A0AEA020A0AFA0CFADF
:100A60004FF0010B0BFA0CFBABF1010B0BEA030B84
:100A70004AEA0B042146404601F0BEFBBDE8F09F68
:100A800000BF00F00702064B19684FF6FF0319403C
:100A9000044B0B4343EA0221014B196000BF70472E
:100AA0000CED00E00000FA0570B504460D460CB9E7
:100AB000012070BD5A48006800F00700A8420ED21D
:100AC0005748006820F00700284355490860084649
:100AD000006800F00700A84201D00120E9E7207873
:100AE00000F0020002281DD1207800F00400042844
:100AF00005D14C48406840F4E0604A49486020789D
:100B000000F00800082805D14648406840F46050CD
:100B1000444948604348406820F0F000A168084319
:100B200040494860207800F0010078B360680128EF
:100B300006D13C48006800F4003090B90120B8E7C5
:100B40006068022806D13748006800F0007040B99C
:100B50000120AEE73348006800F0020008B9012028
:100B6000A7E73048406820F00300616808432D493A
:100B70004860FFF7C1FE064609E0FFF7BDFE801B97
:100B800041F28831884202D9032092E707E02548E4
:100B9000406800F00C006168B0EB810FEDD1204897
:100BA000006800F00700A8420ED91D48006820F038
:100BB000070028431A4908600846006800F007004B
:100BC000A84201D0012074E7207800F00400042836
:100BD00007D11448406820F4E060E16808431149F7
:100BE0004860207800F00800082808D10D484068C7
:100BF00020F46050216940EAC1000A49486000F0D1
:100C000019F808494968C1F30311074A515CC84003
:100C10000649086006480068FFF794FE002048E790
:100C20000020024000100240A2220008180000200C
:100C30001000002070B500210022002400230020B5
:100C4000134D696801F00C05F5B1042D02D0082D93
:100C500019D101E00F4819E00F4DC1F38346AB5D98
:100C600001F4803555B10A4D6D68C5F340450B4E12
:100C7000725D084D5D43B5FBF2F402E0084D03FBE5
:100C800005F4204602E000BF024800BF00BF70BD6F
:100C90000010024000127A0090220008A0220008F2
:100CA00000093D00F8B504460CB90120F8BD2078D4
:100CB00000F00100002878D0F848406800F00C00EF
:100CC00004280CD0F548406800F00C00082811D129
:100CD000F248406800F48030B0F5803F0AD1EF4818
:100CE000006800F4003000285FD0606800285CD104
:100CF0000120DBE700BF6068B0F5803F06D1E74820
:100D0000006840F48030E549086028E0606858B920
:100D1000E248006820F48030E04908600846006836
:100D200020F4802008601AE06068B0F5A02F0BD195
:100D3000DA48006840F48020D84908600846006816
:100D400040F4803008600AE0D448006820F4803025
:100D5000D24908600846006820F48020086000BF7F
:100D6000606888B1FFF7C8FD054606E0FFF7C4FDDF
:100D7000401B642801D9032098E7C848006800F4A4
:100D800000300028F2D010E0FFF7B6FD054606E07F
:100D9000FFF7B2FD401B642801D9032086E7BF4856
:100DA000006800F400300028F2D1207800F0020042
:100DB000022857D1B948406800F00C0050B1B7483C
:100DC000406800F00C00082818D1B448406800F4CE
:100DD000803098B9B148006800F0020020B1206965
:100DE000012801D0012061E7AC48006820F0F8003C
:100DF000616940EAC100A949086033E02069E8B1AF
:100E00000120A7490860FFF777FD054606E0FFF7D8
:100E100073FD401B022801D9032047E79F48006863
:100E200000F002000028F2D09C48006820F0F80092
:100E3000616940EAC1009949086013E000209849BF
:100E40000860FFF759FD054606E0FFF755FD401B1A
:100E5000022801D9032029E79048006800F0020029
:100E60000028F2D1207800F0080008282DD1A069D0
:100E7000B8B101208B490860FFF73EFD054606E04A
:100E8000FFF73AFD401B022801D903200EE78348F3
:100E9000406A00F002000028F2D0012000F044FF78
:100EA00013E000207F490860FFF726FD054606E0B5
:100EB000FFF722FD401B022801D90320F6E6774800
:100EC000406A00F002000028F2D1207800F004000F
:100ED000042873D100277148C06900F0805070B9B0
:100EE00000BF6E48C06940F080506C49C861084638
:100EF000C06900F08050009000BF00BF01276A4821
:100F0000006800F48070B0B96748006840F48070F1
:100F100065490860FFF7F0FC054606E0FFF7ECFCCA
:100F2000401B642801D90320C0E65F48006800F434
:100F300080700028F2D000BFE068012806D1574831
:100F4000006A40F001005549086227E0E06858B99E
:100F50005248006A20F00100504908620846006AC1
:100F600020F00400086219E0E06805280BD14B4826
:100F7000006A40F00400494908620846006A40F0EF
:100F8000010008620AE04548006A20F00100434978
:100F900008620846006A20F00400086200BFE068AA
:100FA000A0B1FFF7A9FC054609E0FFF7A5FC401B2F
:100FB00041F28831884202D9032077E622E037489F
:100FC000006A00F002000028EFD012E0FFF794FC66
:100FD000054608E0FFF790FC401B41F2883188424B
:100FE00001D9032062E62D48006A00F002000028C3
:100FF000F0D1012F05D12948C06920F08050274940
:10100000C86100BFE069C8B32448406800F00C0024
:10101000082860D0E069022848D1002020490866ED
:10102000FFF76AFC054606E0FFF766FC401B022856
:1010300001D903203AE61948006800F00070002842
:10104000F2D1206AB0F5803F07D11448406820F4FF
:101050000030A168084311494860D4E908010843F9
:101060000E49496821F4741108430C494860012075
:101070000B490866FFF740FC054607E03DE0FFF737
:101080003BFC401B022801D903200FE603480068FF
:1010900000F000700028F2D02FE0000000100240A5
:1010A0000000424280044242007000400020144987
:1010B0000866FFF721FC054606E0FFF71DFC401B14
:1010C000022801D90320F1E50E48006800F0007005
:1010D0000028F2D111E0E069012800D1E6E50948D5
:1010E000466806F48031206A814204D106F470110A
:1010F000606A814201D00120D8E50020D6E50000D9
:101100000000424200100240704710B504460CB97E
:10111000012010BD606A38B96068B0F5827F00D1E7
:1011200005E00021E16102E000212161616100210F
:10113000A16294F8510028B9002084F8500020469C
:1011400000F042F8022084F851002068006820F086
:10115000400021680860A08800F48270218901F4B1
:1011600004410843A18901F400610843217C01F096
:1011700002010843217D01F001010843218B01F4A4
:1011800000710843217F01F0380108432021095DE7
:1011900001F080010843218D01F4005108432168CA
:1011A00008600421A06901EA1040216848602068B5
:1011B000C06920F400602168C861002060650120DA
:1011C00084F851000020A4E710B586B00446002042
:1011D000029003900490059023492068884240D1F2
:1011E00000BF2248C06940F480402049C8610846D9
:1011F000C06900F48040019000BF00BF00BF0846F6
:10120000806940F0080088610846806900F00800A5
:10121000019000BF00BF4FF42040029000200390D7
:10122000049002A91248FFF7C9F912481249086050
:1012300000204860002110488160C1604FF4807137
:10124000016189004161202181610021C161FFF7B5
:101250001FF908B1FFF74AF800BF0748E06444628D
:1012600000BF06B010BD0000003800400010024072
:10127000000C014044000240740000202DE9F041C0
:1012800004460E46154694F85100012802D002206B
:10129000BDE8F081A06868B96068B0F5827F09D1C7
:1012A000042084F851002B4632463146204600F097
:1012B00073F8EDE706B10DB90120E9E700BF94F836
:1012C0005000012801D10220E2E7012084F85000FB
:1012D00000BF042084F8510000206065A663A58744
:1012E000E58720646064A086E086A068B0F5004FC2
:1012F0000BD12068006820F0400021680860206859
:10130000006820F48040216808601F48E16CC862D2
:101310001E48E16C88621E48E16C08630020E16CA5
:101320004863E38F276807F10C01A26BE06CFFF7BD
:10133000E3F850B1606D40F01000606500BF002020
:1013400084F8500000BF0120A2E72068006800F088
:101350004000402805D02068006840F04000216827
:10136000086000BF002084F8500000BF206840687B
:1013700040F02000216848602068406840F001008B
:1013800021684860002083E7791D0008951D00084A
:10139000511D0008704770472DE9F04704460E467E
:1013A00017461D4694F85180D4F80490B8F1010F07
:1013B0000AD0B9F5827F04D1A06810B9B8F1040F42
:1013C00002D00220BDE8F0870EB107B10DB90120AF
:1013D000F8E700BF94F85000012801D10220F1E79E
:1013E000012084F8500000BF94F85100042802D076
:1013F000052084F85100002060652663A586E586F7
:10140000A763A587E5872064606494F851000428E9
:1014100006D13548E16CC8623448E16C886205E069
:101420003348E16CC8623348E16C88623248E16C51
:1014300008630020E16C4863E38FD4F800C00CF12E
:101440000C01A26BE06CFFF757F850B1606D40F0F3
:101450001000606500BF002084F8500000BF01202C
:10146000B0E72068406840F0010021684860002033
:10147000A16CC862A16C8862A16C0863A16C48630E
:10148000E38ED4F800C00CF10C02216BA06CFFF7C6
:1014900033F850B1606D40F01000606500BF00206F
:1014A00084F8500000BF01208CE72068006800F03D
:1014B0004000402805D02068006840F040002168C6
:1014C000086000BF002084F8500000BF206840681A
:1014D00040F02000216848602068406840F0020029
:1014E0002168486000206DE7791D0008951D0008FF
:1014F000871D00080F1E0008511D00087047704727
:1015000070B504462546681EB0F1807F01D30120E6
:101510000FE0681E4FF0E02148610F214FF0FF30CF
:1015200000F06AFE00204FF0E0218861072008618A
:10153000002070BD30B502460B4600BF92F83C005B
:10154000012801D1022030BD012082F83C0000BFFB
:10155000022082F83D00106844681068816824F019
:1015600070041868044310684460104D1068A84265
:101570000BD01068B0F1804F07D00D4D1068A84215
:1015800003D00C4D1068A84205D121F080015868A5
:10159000014310688160012082F83D0000BF0020F7
:1015A00082F83C0000BF00BFCDE70000002C0140E6
:1015B000000400400008004010B504460CB90120AA
:1015C00010BD94F83D0028B9002084F83C00204666
:1015D00000F026F8022084F83D00211D206800F06C
:1015E00083FD012084F8460000BF84F83E000121FD
:1015F0003F200155402001554120015500BF00BF4B
:10160000012084F842004320015544200155452023
:10161000015500BF012084F83D000020D0E7000004
:1016200008B50168B1F1804F0DD100BF0649C96905
:1016300041F00101044AD1611146C96901F001017B
:10164000009100BF00BF08BD00100240014691F8A4
:101650003D00012801D001207047022081F83D00A3
:10166000124B086898420BD00868B0F1804F07D041
:101670000F4B0868984203D00E4B086898420CD173
:101680000868806800F00702062A0CD00868006825
:1016900040F001000B68186005E00868006840F041
:1016A00001000B6818600020D6E70000002C014004
:1016B00000040040000800402DE9F04104460D46BA
:1016C000002700BF94F83C00012802D10220BDE8A9
:1016D000F081012084F83C0000BF022084F83D0026
:1016E0002068866826F0770626F47F4620688660A4
:1016F0002868502833D00CDC202850D004DC002887
:101700004BD0102851D149E0302849D040284CD145
:1017100039E060282DD0702807D0B0F5805F03D065
:10172000B0F5005F41D10DE041E0D5E902136A68F0
:10173000206800F01BFD2068866846F07706206868
:10174000866034E0D5E902136A68206800F00EFD77
:101750002068806840F480402168886027E0EA685B
:101760006968206800F016FD5021206800F009FD2E
:101770001DE0EA686968206800F01FFD60212068AC
:1017800000F0FFFC13E0EA686968206800F002FDE1
:101790004021206800F0F5FC09E000BF00BF00BF59
:1017A0002968206800F0EDFC01E0012700BF00BFC0
:1017B000012084F83D0000BF002084F83C0000BFF9
:1017C000384684E700BFFEE708B500BF0A48406915
:1017D00040F00100084948610846406900F00100F6
:1017E000009000BF00BF002211460E20FFF70AF94B
:1017F0000E20FFF7F7F808BD0010024000B585B0D5
:101800000020019002900390049000BF3C48806942
:1018100040F010003A4988610846806900F01000E5
:10182000009000BF00BF00BF0846806940F0200064
:1018300088610846806900F02000009000BF00BF6A
:1018400000BF0846806940F004008861084680694E
:1018500000F00400009000BF00BF00BF0846806990
:1018600040F0080088610846806900F00800009098
:1018700000BF00BF0022A4212248FFF737F8012251
:1018800010212048FFF732F84FF460400190032008
:10189000029001A91C48FEF791FE49F603700190E1
:1018A0000320029001A91748FEF788FEB42001909A
:1018B00001200290002003900320049001A9114808
:1018C000FEF77CFE08200190104802900020039053
:1018D00001A90C48FEF772FE402001900020029002
:1018E000039001A90748FEF769FE45F6FF700190D5
:1018F0000320029001A90648FEF760FE05B000BD76
:1019000000100240000801400010014000003110AA
:10191000000C014010B50E480E49086000204860D8
:101920004FF480610B4881604900C1600021016172
:1019300041614FF400718161002101624162816265
:101940000A21C162FFF7E1FB08B1FEF7CFFC10BD31
:10195000003800401C00002000B587B00020039034
:10196000049005900690019002904FF08040144939
:101970000860472048600021114881604FF6FF71E0
:10198000C160002101618161FFF716FE08B1FEF719
:10199000ADFC4FF48050039003A90948FFF78CFE7B
:1019A00008B1FEF7A3FC00200190029001A90448B1
:1019B000FFF7C0FD08B1FEF799FC07B000BD0000BD
:1019C000B800002000BFFEE700BFFEE710B500240E
:1019D000002000F0AFF8044644F003042146002044
:1019E00000F010F9012204210548FEF77FFF962040
:1019F000FEF76FFC00F06AF800F082F810BD0000FE
:101A00000008014070B5054600260024284600F075
:101A100047F8002000F08EF8044644F0020424F059
:101A200001042146002000F0EDF89620FEF751FC5D
:101A300002222946A02000F0B9F80122042117480B
:101A4000FEF754FF0F20FEF744FC00220421134848
:101A5000FEF74CFF00BF08211048FEF73FFF0128AA
:101A6000F9D0072000F066F8064606F0200020B105
:101A70002021072000F0C6F808E006F0100028B189
:101A80001021072000F0BEF800F03AF8082000F01E
:101A900051F80446FFF79AFF204670BD0008014048
:101AA00010B5044603220749102000F0C3F80022B5
:101AB00004210548FEF71AFF00F008F800F020F8AE
:101AC00010BD0000000000200008014008B50AA079
:101AD00000680090002210210848FEF707FF9DF8DB
:101AE000000000F091FA0120FEF7F3FB0122102123
:101AF0000248FEF7FBFE08BDE200000000080140BE
:101B000008B50AA000680090002210210848FEF7DE
:101B1000EDFE9DF8000000F077FA0120FEF7D9FBFA
:101B2000012210210248FEF7E1FE08BDE10000009D
:101B30000008014070B504460026002210210A4822
:101B4000FEF7D4FE204600F05FFA0646072C04D0CC
:101B5000FF25284600F058FA0646012210210248C7
:101B6000FEF7C4FE304670BD0008014008B50DA068
:101B700000680090002210210B48FEF7B7FE9DF888
:101B8000000000F041FA0120FEF7A3FB7320009053
:101B90009DF8000000F038FA012210210248FEF7FB
:101BA000A5FE08BD50000000000801402DE9F041ED
:101BB00007460D461646002204211148FEF796FE00
:101BC000002210210E48FEF791FE384600F01CFA64
:101BD0000120FEF77EFB002404E0285D00F014FAEB
:101BE000601CC4B2B442F8DB012210210448FEF7A5
:101BF0007DFE012204210248FEF778FEBDE8F08157
:101C00000008014070B505460C4645F0200500224D
:101C100010210748FEF76AFE284600F0F5F9204635
:101C200000F0F2F9012210210148FEF75FFE70BDBD
:101C3000000801402DE9F04105460E46174645F0E3
:101C40002005002210210C48FEF750FE284600F027
:101C5000DBF90120FEF73DFB002404E0305D00F0DD
:101C6000D3F9601CC4B2BC42F8DB01221021024847
:101C7000FEF73CFEBDE8F0810008014010B50022EF
:101C800004212548FEF732FE41F28830FEF721FBA1
:101C90000A210020FFF7B6FF41F28830FEF719FB5A
:101CA00003210120FFF7AEFF03210220FFF7AAFF67
:101CB00001210320FFF7A6FF5F210420FFF7A2FF09
:101CC000FFF754FF00211D20FFF79CFF00211C207F
:101CD000FFF798FF70210720FFF794FF4C210520A4
:101CE000FFF790FF06210846FFF78CFF03220B4900
:101CF0001020FFF79FFF032208490B20FFF79AFFF0
:101D000002211120FFF77EFFFFF760FE0022012174
:101D10000348FEF7EBFD10BD000801400000002065
:101D2000000C01407047000008B508490968C9085F
:101D30004FF47A72B1FBF2F14143009100BF00BF52
:101D400000994A1E00920029F9D108BD1800002010
:101D500070B505466C6A2068406820F00300216871
:101D60004860606D40F010006065012084F851000B
:101D70002046FFF7C9F970BD70B50446656A28466C
:101D8000FFF709FB70BD70B50446656A2846FFF78A
:101D9000B6FB70BD70B505466C6AFEF7ADFD064634
:101DA0002868006800F0200020282BD020684068B8
:101DB00020F0200021684860A06850B96068B0F544
:101DC000827F06D12068406820F0030021684860C7
:101DD00005E02068406820F0010021684860324634
:101DE0006421204600F046F808B1202060650020FC
:101DF000E087012084F85100606D18B12046FFF79C
:101E000083F970BD2046FFF7C5FA00BFF9E770B54A
:101E100005466C6AFEF770FD06462868006800F00B
:101E20002000202821D02068406820F02000216870
:101E3000486032466421204600F058F818B1606DC1
:101E400040F0200060652068406820F003002168B1
:101E500048600020E086E087012084F85100606D32
:101E600018B12046FFF750F970BD2046FFF746FB3A
:101E700000BFF9E7F8B504460E4615466068B0F5B0
:101E8000827F0DD1A068B0F5004F03D0A068B0F5F7
:101E9000806F05D12068006820F04000216808604C
:101EA0006068B0F5827F11D1A068B0F5806F0DD168
:101EB0003346002201212046009500F039F898B100
:101EC000606D40F0200060650320F8BD33460022BD
:101ED00080212046009500F02BF828B1606D40F07D
:101EE000200060650320F0E70020EEE7F8B5044627
:101EF0000E4615463346012202212046009500F089
:101F000017F828B1606D40F0200060650320F8BD2F
:101F10003346002280212046009500F009F828B1C0
:101F2000606D40F0200060650320F0E70020EEE7E0
:101F30002DE9F84F04460D4690461E46DDF82890E0
:101F4000FEF7DAFCA0EB0900371AFEF7D5FC824653
:101F50002C480068C0F3CB307843009045E0701CFB
:101F6000002842D0FEF7C8FCA0EB0A00B84200D21D
:101F7000A7BB2068406820F0E000216848606068E6
:101F8000B0F5827F0DD1A068B0F5004F03D0A068F6
:101F9000B0F5806F05D12068006820F0400021680E
:101FA0000860A06AB0F5005F0DD100BF206800682E
:101FB00020F40050216808602068006840F4005058
:101FC0002168086000BF012084F8510000BF002094
:101FD00084F8500000BF0320BDE8F88FFFE70098A9
:101FE00000B900270098401E0090206880682840B3
:101FF000A84201D1012000E000204045AFD10020DF
:10200000EAE700001800002030B503460024082548
:1020100026E06006040E03F0800018B18020144909
:10202000086003E080201249091D0860012000F0CB
:10203000F7F820200E4908600D480838006800F0C5
:10204000400008B144F00104012000F0E9F820202C
:102050000749091D0860012000F0E2F85806030E48
:10206000281EA5F10101CDB2D3D1204630BD00001C
:1020700010080140704710B5FEF744FC10BD00B5D4
:102080008FB0282105A8FEF79FF814216846FEF7B7
:102090009BF8012005900004069000200790012085
:1020A000099002200C90C1030D914FF4E0110E91A4
:1020B00005A8FEF7F7FD08B1FEF718F90F2000900C
:1020C00002200190002002904FF4806003900020D5
:1020D000049002216846FEF7E7FC08B1FEF706F916
:1020E0000FB000BD7047000010B502681C4B98424D
:1020F00008D0B0F1804F05D01A4B984202D01A4B4D
:10210000984203D122F070024B681A43144B984254
:1021100008D0B0F1804F05D0124B984202D0124B3C
:10212000984203D122F44072CB681A4322F0800314
:102130004C6943EA040202608B68C3620B688362E5
:10214000074B984201D10B69036301234361036983
:1021500003F001031BB1036923F00103036110BD08
:10216000002C0140000400400008004030B50C463F
:10217000816821F47F4142EA032525432943816098
:1021800030BD0A46816821F0700142F0070319430F
:102190008160704730B50B461446026A056A25F027
:1021A00001050562816921F0F00141EA041122F084
:1021B0000A021A438161026230BD30B50B461446F3
:1021C000026A056A25F010050562816921F47041F3
:1021D00041EA043122F0A00242EA03128161026264
:1021E00030BD00BFFEE7000002480068C0F30220D7
:1021F000704700000CED00E010B5002804DB0A0772
:10220000130E054A135406E00A07140E034A00F0A1
:102210000F031B1FD45410BD00E400E018ED00E0D4
:1022200000214FF08042516200BF4FF08041496A67
:102230008142FAD370470000FEF770FBFFF71FFFE3
:10224000FFF7DCFAFFF7C0FAFFF786FBFFF762FB48
:102250000C48FFF7FBF9C820FEF79CF9FFF70EFDCD
:102260004FF47A70FEF796F9012207490748FFF705
:1022700005F806E04FF49660FEF72BF80248FFF7EA
:10228000C1FBF7E7B80000200A0000201C00002076
:1022900002030405060708090A0B0C0D0E0F1010A7
:1022A0000102000000000000000001020304060714
:1022B000080900000000010203040000DC220008FD
:1022C000000000201C00000028010008F82200087F
:1022D0001C0000204407000044010008B3B40100C2
:1022E00000000000000000000000000010000000DE
:0822F0000100000000127A0059
:04000005080000ED02
:00000001FF
